:060000000200330200A71C
:03000B000200A947
:030013000200AB3D
:03001B000200AD33
:030023000200AF29
:03002B000200B11F
:03008C0002002E41
:05002E001200B380FE8A
:08008F00AA82AB837C007D0016
:0E009700C3EC9AED9B5008000CBC00F40D80E9
:0100A500F169
:0100A6002237
:0200A700003225
:0200A900003223
:0200AB00003221
:0200AD0000321F
:0200AF0000321D
:0200B10000321B
:0D00B30075900090753012008F7590FF90D1
:0E00C000EA6012008F75900090753012008F6C
:0E00CE007590FF90753012008F75900080D7EE
:06006200E478FFF6D8FD72
:080040007900E94400601B7A1D
:05004800009000E078CB
:03004D000075A09B
:0A00500000E493F2A308B8000205D3
:08005A00A0D9F4DAF275A0FF51
:080068007800E84400600A7909
:030070000075A078
:0600730000E4F309D8FCD3
:080079007800E84400600C79F6
:0B00810000900000E4F0A3D8FCD9FAC6
:03003300758107CD
:0A0036001200DCE582600302002ED8
:0400DC007582002207
:00000001FF
