:03000000020006F5
:03005F0002000399
:0300030002007385
:20006200AE82AF83EE4F6008001EBEFF011F80F4227508007509808508828509837401F0E6
:20008200908AC81200628508828509837402F0908AC81200628508828509837404F0908A8A
:0600A200C812006280D1CB
:06003500E478FFF6D8FD9F
:200013007900E94400601B7A009000AC780175A000E493F2A308B8000205A0D9F4DAF275E7
:02003300A0FF2C
:20003B007800E84400600A790175A000E4F309D8FC7800E84400600C7900900001E4F0A3C3
:04005B00D8FCD9FAFA
:0D0006007581091200A8E582600302000365
:0400A800758200223B
:00000001FF
